:020000040800F2
:10000000E8BA01205D020008DF2F00082D28000853
:10001000DD2F0008F50B0008CD35000800000000BA
:100020000000000000000000000000009D0100082A
:10003000B50C000800000000F90100087532000846
:1000400077020008770200087702000877020008AC
:10005000770200087702000877020008770200089C
:10006000770200087702000877020008770200088C
:10007000770200087702000877020008770200087C
:100080007702000877020008450A00087702000896
:10009000770200087702000877020008770200085C
:1000A000770200083533000877020008770200085D
:1000B000770200087702000877020008770200083C
:1000C000770200087702000877020008770200082C
:1000D000770200087702000877020008770200081C
:1000E000770200087702000877020008770200080C
:1000F00077020008770200087702000877020008FC
:1001000077020008770200087702000877020008EB
:1001100077020008770200087702000877020008DB
:10012000F90B0008050C00087702000877020008A8
:1001300077020008770200087702000877020008BB
:1001400077020008770200087702000877020008AB
:10015000770200087702000877020008770200089B
:10016000770200087702000877020008770200088B
:1001700077020008770200087702000800000000FC
:100180007702000877020008DFF80CD000F0D6FBF9
:100190000048004701610208E8BA01202C4B1968A9
:1001A0000868B0E8F04F80F30988BFF36F8F4FF015
:1001B000000080F3118870470000000008480068C4
:1001C000006880F308884FF0000080F3148862B65E
:1001D00061B6BFF34F8FBFF36F8F00DF00BF00BF6B
:1001E00008ED00E0DFF80C00016841F470010160E7
:1001F000704700BF88ED00E0EFF30980BFF36F8F19
:10020000134B1A681EF0100F08BF20ED108A20E96A
:10021000F04F106009B44FF0500080F31188BFF325
:100220004F8FBFF36F8F2BF08FFB4FF0000080F3E9
:10023000118809BC19680868B0E8F04F1EF0100F6B
:1002400008BFB0EC108A80F30988BFF36F8F704746
:100250009CC00120EFF305807047000006488047EE
:1002600006480047FEE7FEE7FEE7FEE7FEE7FEE79B
:10027000FEE7FEE7FEE7FEE72533000889010008F8
:100280002DE9F05F0546002092469B4688460646CB
:10029000814640241BE0284641464746224600F05E
:1002A000B6FA53465A46C01A914110D31146184621
:1002B000224600F09DFA2D1A67EB01084F462246B0
:1002C0000120002100F094FA17EB00094E41201E96
:1002D000A4F10104DFDC484631462A464346BDE826
:1002E000F09F10B5431A934209D28318881803E08F
:1002F00010F8011D03F8011D521EF9D210BD40EA8D
:1003000001039B0703D009E008C9121F08C0042A93
:10031000FAD203E011F8013B00F8013B521EF9D27A
:1003200010BDD2B201E000F8012B491EFBD270478C
:100330000022F6E710B513460A4604461946FFF7B1
:10034000F0FF204610BD421C10F8011B0029FBD114
:10035000801A704710B5002200E0521C835C8C5C50
:10036000A34201D1002BF8D1D8B2E1B2401A10BD9E
:10037000034611F8012B00F8012B002AF9D1184689
:1003800070472DE9FE4F804681EA0300C00F0C46FE
:10039000009021F0004123F00045B8EB0200A94194
:1003A00005D24046214690461C460B46024623F0A5
:1003B0000040104347D0270DC7F30A00C3F30A518A
:1003C0000290401A019040286BDAC3F3130040F406
:1003D000801B0098924620B10023D2EB030A63EB06
:1003E0000B0B01985946C0F14002504600F000FA4C
:1003F00006460D4650465946019A00F018FA10EB91
:1004000008006141002487EA115284EAE7731A4325
:1004100040D0009A62B3019A012A4FEA075215DCD4
:10042000001B61EB02014FF0004202EA0752CDE9E6
:100430000042001C41F5801132462B4600F018FAAC
:1004400003B0BDE8F08F40462146F9E7001B61EBA1
:100450000201001C41F5801300185B412018A2F531
:10046000001747EB030140EAD570B6196D4111E062
:100470006D084FEA360645EAC0754FEA0752001B81
:1004800061EB0201001C41F5801149084FEA300080
:100490000019514132462B4603B0BDE8F04F00F041
:1004A000D8B90098012240000023D0EB020263EB90
:1004B000E073009821464FEAE074B8EB000061EB6E
:1004C0000401E9E783F000435BE781F0004158E76E
:1004D0002DE9FE4F81EA030404F0004421F00041BD
:1004E00000944FF0000B23F0004350EA01045ED06B
:1004F00052EA03045BD0C3F30A54C1F30A552C44F7
:10050000A4F2F3340194A0FB0254C1F3130141F4AB
:100510008011C3F3130343F4801301FB024400FB77
:10052000034E840A970A44EA815447EA8357A4FB9E
:10053000076802958D0A05FB07854FEA932C04FB9B
:100540000C542705029D4FEA065847EA1637B5EBCB
:1005500008056EEB070C870E920E47EA811742EAF8
:100560008312A7FB0201B6EB0B0164EB00042B0D19
:1005700043EA0C335E1844EB1C50DA465146E7FB65
:100580000201C5F313044FEA0B3343EA14534FEA55
:100590000432019C43EA0603A4F10C040294009C7B
:1005A000CDE900B400F064F903B0BDE8F08F00209D
:1005B0000146F9E72DE9F04D81EA030404F0004B10
:1005C00021F0004514464FF0000A23F0004150EAA4
:1005D000050220D054EA01021DD0C5F30A57024695
:1005E000C5F31303C1F31300C1F30A5640F4801599
:1005F00043F48013A7EB0608101BD64608F2FD381B
:1006000073EB050002D308F1010801E092185B4189
:10061000B8F1000F03DA00200146BDE8F08D00209C
:100620004FF48011064684460EE0171B73EB050756
:1006300005D3121B63EB050306434CEA010C490882
:100640004FEA300092185B4150EA0107EDD152EABF
:10065000030012D082EA040083EA0501084305D0B2
:10066000101BAB4106D20122002306E000224FF00E
:10067000004302E06FF0010253101AEB06004CEB4E
:10068000085110EB0A0041EB0B01BDE8F04D00F002
:10069000E0B80EB5C10F80EAE0700844CA07002137
:1006A00040F233438DE80E000A460B4600F0E0F8B6
:1006B00003B000BD0EB540F2334102910021CDE9F7
:1006C00000110A460B4600F0D3F803B000BD70B528
:1006D000C1F30A5201F000450024C1F3130140F2B6
:1006E000FF3341F480119A4201DA002070BD40F2DC
:1006F00033439A42A2F2334203DC524200F087F8BD
:1007000000E090402C43F1D0404270BDC1F30A524A
:1007100010B5C1F3130140F2FF3341F480119A4246
:1007200001DA002010BD40F233439A42A2F2334274
:1007300003DC524200F06BF810BD904010BD00F099
:10074000004230F000400AD0C10D01F56071C0F3E5
:10075000160042EA0151C2084007114370470020C9
:100760000146704730B5041E71F1000404DB4FF000
:100770000044404264EB0101141E73F1000405DBE8
:100780001C464FF00043524263EB04038B4208BF08
:10079000824230BD30B5041E71F1000404DB4FF01D
:1007A0000044404264EB0101141E73F1000405DBB8
:1007B0001C464FF00043524263EB0403994208BFCA
:1007C000904230BD30B50B46014600202022012466
:1007D00009E021FA02F59D4205D303FA02F5491B0F
:1007E00004FA02F52844151EA2F10102F1DC30BD25
:1007F000202A04DB203A00FA02F1002070479140E1
:10080000C2F1200320FA03F3194390407047202AD5
:1008100004DB203A21FA02F00021704721FA02F3AA
:10082000D040C2F120029140084319467047202A67
:1008300006DBCB17203A41FA02F043EAE07306E008
:1008400041FA02F3D040C2F1200291400843194618
:10085000704710B5141E73F1000408DA401C41F112
:10086000000192185B411A4301D120F0010010BD34
:100870002DE9F04D92469B4611B1B1FA81F202E0AA
:10088000B0FA80F220329046FFF7B2FF04460F46DE
:1008900040EA0A0041EA0B0153465A46084313D086
:1008A000114653EA010019D0C8F140025046FFF743
:1008B000AEFF05460E46504659464246FFF798FFA2
:1008C000084305D0012004E020463946BDE8F08DFC
:1008D0000020054346EAE0762C4337430A98630537
:1008E000E40AA0EB08000022FD0A44EA47540A305B
:1008F00002D500200146E9E7010510196941DDE94B
:10090000084500196941BDE8F04DA2E7C1F30A525C
:10091000C1F3130140F2FF3341F480119A4202DA2D
:1009200000200146704740F233439A42A2F233421C
:1009300002DC5242FFF76BBFFFF75ABF064C074D70
:1009400006E0E06840F0010394E80700984710349F
:10095000AC42F6D3FFF71CFC1C0E03084C0E030838
:1009600070B58C1810F8015B15F0070301D110F871
:10097000013B2A1106D110F8012B03E010F8016B9E
:1009800001F8016B5B1EF9D12B0705D40023521E21
:100990000DD401F8013BFAE710F8013BCB1A921C89
:1009A00003E013F8015B01F8015B521EF9D5A14287
:1009B000D8D3002070BD10B50146806B026C12F0D8
:1009C000500F05D0026CD20626D500F091FA10BD6A
:1009D000016C41F40071016401688A6812F0405FA3
:1009E00017D1027EAAB9CA6A12F4700F02D08A68BF
:1009F00052050ED44A6822F020024A60016C21F4AC
:100A000080710164016CC90403D4016C41F00101DF
:100A1000016400F06BFA10BD806BC26CBDE8104041
:100A20000846104710B5806B40210164416C41F0CD
:100A30000401416400F05CFA10BD10B5806B00F059
:100A400056FA10BD10B5044800F053FABDE8104046
:100A5000024800F04EBA00000CC3012054C301202C
:100A6000464910B54A6822F440324A604A684368F1
:100A70001A434A6001684A6822F480724A60016839
:100A80004A68036942EA03224A6001684A6822F020
:100A900040724A6001684A6883681A434A60016884
:100AA0008A6822F400628A6001688A68C3681A430F
:100AB0008A60816A6FF07062D14201688A6822F0B0
:100AC00070628A6001688A680CD0836A1A438A60FF
:100AD00001688A6822F040528A6001688A68C36AA5
:100AE0001A4301E022F040528A6001688A6822F0CD
:100AF00002028A6001688A68037E42EA43028A60D1
:100B000090F82010002901684A680FD042F4006272
:100B10004A6001684A6822F460424A6001684A6893
:100B2000174C436A04EB43331A4301E022F400629A
:100B30004A600168CA6A22F47002CA620168CA6A1D
:100B4000838B104C04EB03531A43CA6201688A6812
:100B500022F400728A6001688A6890F8303042EAB4
:100B600043228A6001688A6822F480628A60016890
:100B70008A68406942EA8020886010BD00230140F5
:100B800000E0FFFF0000F0FF8EB0124D124C4FF05E
:100B9000FF36314668692BF091FA012808D10E48DA
:100BA00002F034FB00231A46194668692BF0DAF884
:100BB000B4F904000090B4F90230B4F9002007A1A0
:100BC00001A802F015FD01A802F048FB64202AF0FC
:100BD000EBFCDEE714C0012090C001205BBCD3CB4E
:100BE000D9B6C85D20583A256420593A2564205A60
:100BF0003A256400FEE70000014800F061BB0000F8
:100C00009CC30120014800F05BBB0000FCC3012035
:100C100001681823CAB2103AB2FBF3F2054B6FF326
:100C20000901032A9B5CC36500D9091D816508463B
:100C30007047000074C7020810B5014600208B6998
:100C40008A6A4FF0C07453B1B3F5005F15D072B12A
:100C5000012A0CD0022A0AD0032A09D104E01AB1D1
:100C6000012A06D0022A03D1C96AC90100D5012090
:100C700010BDC96AA142FAD010BD002AF7D0012ADE
:100C8000F2D0022AF3D0032AF3D010BD30B50468A5
:100C9000256825F480252560046863608368402BFF
:100CA000036803D099600068C26030BD9A60006834
:100CB000C16030BD704772B6FEE7000030B5B3F5D5
:100CC000804F05D06FF0704140F82210002030BDF9
:100CD0008C690B688D6823434C688989240144EA38
:100CE0000524234343EA014150F82230014C2340BC
:100CF0001943E9E70000F0CF10B50A6850F8223038
:100D000023F0010340F822308C68082C23D0002304
:100D10004A682243CC681C430B6922431A434B693F
:100D20000E4C1A43CB691A430B6A1A434B6A1A4397
:100D30008B6A1A43CB6A1A430B6B1A438B691343B2
:100D4000CA6B09681A4350F82130A343134340F893
:100D50002130002010BD4023DAE700007FFF0F00A4
:100D600030B5D1E9003443EA04138C688D8924023C
:100D700044EA054423430C8A074D00EB820005EB4F
:100D8000045423430C7D6D0105EB046489692343FE
:100D90000B434360002030BD0000F0FF70470000AF
:100DA00078B50024009490F83C20012A19D0012243
:100DB00080F83C200A6807230568092A13D9EE68E1
:100DC0000A3A02EB420293409E43EE600B788A6837
:100DD0000A3B03EB43039A400368DD682A43DA6069
:100DE00010E0022078BD2E6902EB420293409E4340
:100DF0002E610B788A6803EB43039A4003681D69F0
:100E00002A431A614A681F23072A13D205686E6BAA
:100E1000521E02EB820293409E436E630B790A8856
:100E20005B1E92B203EB83039A4003685D6B2A4317
:100E30005A6327E005680D2A12D22E6BD21F02EBEF
:100E4000820293409E432E630B790A88DB1F92B285
:100E500003EB83039A4003681D6B2A431A6311E076
:100E6000EE6A0D3A02EB820293409E43EE620B79EA
:100E70000A880D3B92B203EB83039A400368DD6A54
:100E80002A43DA62164B0568144A9D4206D10D6862
:100E9000122D03D1556845F48005556005689D42C3
:100EA00018D10B68102B01D0112B13D1536843F4C8
:100EB00000035360096810290CD10A490A4A0968DD
:100EC000B1FBF2F101EB8101490000E0491E009104
:100ED0000029FBD180F83C40002078BD0023014070
:100EE0000020014038C0012040420F007047704789
:100EF000704770B5044600680668456816F0020F32
:100F000005F020012AD049B3216CC90603D4216C15
:100F100041F400712164816811F0405F17D1217E96
:100F2000A9B9C16A11F4700F02D0816849050ED4C5
:100F3000416821F020014160206C20F48070206421
:100F4000206CC00403D4206C40F0010020642046D3
:100F5000FFF7CCFF21686FF01200086016F0040F55
:100F600005F0800132D089B3206CC00603D4206C18
:100F700040F4005020642068816811F4401F1ED1A5
:100F8000816B11F4401F02D08168490517D4416874
:100F9000490514D4816811F0405F10D1217E71B9E8
:100FA000416821F080014160206C20F48050206471
:100FB000206CC00503D4206C40F001002064204662
:100FC000FFF7ECFE21686FF00C00086016F0010FCF
:100FD00005F040010FD071B120680068C0070AD049
:100FE000206C40F480302064204600F043F82168F3
:100FF0006FF00100086016F0200F05F080610ED040
:1010000000290CD0606C40F00200606420686FF032
:10101000200505602046FFF76BFF2068056070BD66
:1010200070B504004FF0000503D0206C002610B10D
:1010300007E0012070BD204600F01EF8666484F8C9
:101040003C60206CC00610D4206C20F4885040F026
:10105000020020642046FFF703FD6664206C20F048
:10106000020040F00100206400E0012584F83C60AB
:10107000284670BD704700002DE9F04786B006464F
:1010800014216846FFF754F93248314A3168002587
:1010900007154FF400684FF400594FF4807A9142DD
:1010A00020D1016841F48071016000682B4C00F48C
:1010B000807005902848E4E80205F80120C4A4E8FF
:1010C000A00764E8080525483AE0B463002205213A
:1010D0001220A66300F0FAFE122000F0E9FE06B02E
:1010E000BDE8F0871E4A9142F9D1016841F4806160
:1010F0000160006800F480600590164814380168AB
:1011000041F0200101600068694600F02000059070
:10111000802000900320CDE90105124800F0A8FAD4
:101120000E4C0D486034183020604FF08060C4E9E8
:10113000010504F10C01204681E8A00725626562E3
:1011400000F08EF90028C0D0FFF7B5FDBDE7000024
:101150000020014044380240106402409CC301203A
:101160000022014000140240F8B50E46002104465A
:10117000009190F83C0013460A46012807D0012050
:1011800084F83C0020688568ED0702D011E0022059
:10119000F8BD856845F0010585604048404D006810
:1011A000B0FBF5F000EB400000E0401E009000288E
:1011B000FBD120688568ED0503D5856825F4807529
:1011C000856020688568ED075DD0226C40F201657E
:1011D000AA4342F4807222644068400505D5206C21
:1011E00020F4005040F480502064206CC00404D5EA
:1011F000606C20F00600606400E0616484F83C10DC
:10120000A16B2948274DC863A16B28480864A16BCE
:101210002748C86421686FF0220008602068416890
:1012200041F0806141602068816841F48071816093
:10123000216832464C31A06B00F07CF902466868A8
:101240001C49C006206806D0884224D1816811F06C
:10125000405F13D01FE08842F8D0174B984203D16B
:10126000D1F80433DB06F1D0144B984213D1D1F8F6
:10127000041301F01F011029E8D30CE0816841F04C
:101280008041816007E0206C40F010002064606CB9
:1012900040F0010060641046F8BD000038C0012035
:1012A00040420F0000230140B70900083B0A000834
:1012B000250A0008002001400021014000220140D1
:1012C0002DE9F84304464FF00009CDF8009063483B
:1012D0004FF41651A56D0068B0FBF1F72E6894F835
:1012E0005C10082000FA01F131420FD021680A6831
:1012F00052070BD50A6822F004020A6094F85C10C9
:101300008840A860606D40F00100606594F85C1052
:101310004FF0010808FA01F0304208D0216849690D
:10132000090604D5A860606D40F00200606594F87D
:101330005C1004208840304208D021680968890781
:1013400004D5A860606D40F00400606594F85C10FE
:1013500010208840304218D021680968090714D548
:10136000A86020680168490304D50068000308D517
:10137000A16C07E00168C90503D4016821F00801E8
:101380000160216C09B12046884794F85C10202048
:101390008840304231D021680968C9062DD5A8603F
:1013A00094F8350005282068016806D0490347D520
:1013B000006800031DD4616C1CE021F0160101607F
:1013C0002068416921F080014161206C08B9A06C5E
:1013D00020B12068016821F00801016094F85C10D8
:1013E0003F208840A86084F8358084F83490216DCF
:1013F0001FE0E16B09B120468847606D00282BD0C3
:10140000606DC00714D0052084F83500206801689D
:1014100021F0010101600098401C0090B84203D8FF
:1014200020680068C007F6D184F8358084F83490CD
:10143000E16C002910D001B02046BDE8F043084718
:101440000168C905D5D4016821F01001016084F854
:10145000358084F83490CCE7BDE8F88338C00120AB
:101460002DE9F041044600F005FA06465CB1022081
:1014700084F83500002584F834502068016821F094
:10148000010101600DE00120BDE8F08100F0F2F9FA
:10149000801B052805D920206065032084F83500CD
:1014A000F2E720680068C007F0D122681168204880
:1014B0000140D4E901031843D4E903363343184308
:1014C00063691843A3691843E3691843236A1843FF
:1014D0000843616A042903D1D4E90B131943084373
:1014E000106020684069666A20F0070130460E43AC
:1014F000012704280CD1A06A0643E06A40B12046C7
:10150000FFF79AFB20B14020606584F83570BAE798
:10151000206846612046FFF77BFB94F85C203F2162
:1015200091408160656584F835700020ACE700006B
:101530003F8010F02DE9F0410446866D90F83400AC
:10154000002501280DD0012084F8340094F835706E
:101550000020012F07D084F8340002252846BDE87A
:10156000F0810220FBE7022784F835706065204691
:10157000FFF78CFB94F85C103F208840B060206837
:10158000016841F016010160206C20B120680168FB
:1015900041F0080101602068016841F0010101602B
:1015A000DCE7000070B5044600F064F90546601CF5
:1015B00002D004480078044400F05CF9401BA042CB
:1015C000FAD370BD2CC001202DE9F04186B0142162
:1015D0006846FEF7ADFE20480168002939D1012197
:1015E00001601E480024016841F0010101600068AB
:1015F0004FF4805800F001000C27CDF80080CDE9B1
:101600000470032602250396CDE901546946144867
:1016100000F02EF84FF68070CDE9000502AA694669
:1016200082E8D0000F4800F023F84CF23370CDE987
:10163000000502AA694682E8D0000B4800F018F8BD
:1016400002AA694682E8D000CDE90085074800F08B
:101650000FF806B0BDE8F08100C001203838024024
:101660000014024000100240000C0240001802402A
:101670002DE9F84FDFF8BCA10022012503264FF029
:101680000F090AF1040BAAF1040E00BF0B6805FA5A
:1016900002F42340A34270D10F7907F00307012F12
:1016A00001D0022F16D187684FEA420806FA08FCDB
:1016B00027EA0C07D1F80CC00CFA08FC4CEA070C1E
:1016C000C0F808C04768A7430C79C4F300149440DD
:1016D0003C4344600C79E443A4070AD0C4684FEA51
:1016E000420C06FA0CF7BC438F6807FA0CF7274345
:1016F000C7600C7904F00304022C12D1D40800EB6B
:10170000840CDCF820405707FF0E09FA07F824EA9A
:101710000804D1F8108008FA07F848EA0408CCF861
:10172000208004684FEA420C06FA0CF7BC430F799C
:1017300007F0030707FA0CF7274307604C6814F417
:10174000403F70D03C4C276847F4804727602468AE
:1017500022F0030704F480440094384C07EB040C97
:10176000DCF8084897074FEA177809FA08F7BC43EE
:10177000334FB84202D1002724E054E0314FB84241
:1017800001D101271EE0304FB84201D1022719E0F4
:101790002E4FB84201D1032714E02D4FB84201D19A
:1017A00004270FE02B4FB84201D105270AE02A4F4A
:1017B000B84201D1062705E0284FB84201D10727DA
:1017C00000E0082707FA08F72743CCF80878DAF88A
:1017D00000405746D1F804C09C435FEACC2C00D5AA
:1017E0001C433C60DBF800405F46D1F804C09C43DA
:1017F0005FEA8C2C00D51C433C60DEF80040774645
:10180000D1F804C09C435FEA8C3C00D51C433C608B
:10181000084F083F3C68D1F804C09C435FEACC3CC9
:1018200000D51C433C60521C102AFFF42FAFBDE8CA
:10183000F88F0000083C014044380240003001406D
:10184000000002400004024000080240000C024078
:10185000001002400014024000180240001C024028
:101860000069084000D0012070470AB181617047CB
:101870000904FBE701488068704700002CC0012084
:1018800070B5040025D094F83D00002520B984F8F7
:101890003C50204600F052FA242084F83D00206895
:1018A000016821F0010101602068016841F40041F4
:1018B00001602068016821F40041016000F0F2FB42
:1018C0004D4A6168914201D84C4900E04C49884238
:1018D00001D2012070BD4B492368B0FBF1F15E6875
:1018E00026F03F060E435E606368934206D94FF4CC
:1018F000967359434FF47A73B1FBF3F12368491C93
:101900001E6A26F03F06314319626168914210D881
:101910004900401EB0FBF1F2521CC2F30B02042A34
:1019200001D2042022E0B0FBF1F0401CC0F30B0018
:101930001CE0A268F2B301EBC10303EB0116431EE6
:10194000B3FBF6F35B1C43F480431B0549D092B311
:1019500001EBC10202EB0111401EB0FBF1F0401C93
:10196000C0F30B0040F4804040F400402168CA6995
:101970004CF6FF739A431043C861D4E90710014342
:101980002068026822F0C00211430160D4E903011B
:1019900001432068826848F2FF339A431143816013
:1019A000D4E9050108432168CA6822F0FF02104308
:1019B000C86001E00EE016E02068016841F0010116
:1019C00001602564202084F83D00256384F83E50A2
:1019D000002070BD01EB4106431EB3FBF6F35B1C18
:1019E000B3E70120C2E701EB4101401EB0FBF1F07B
:1019F000401CC0F30B00B7E7A086010080841E00E6
:101A000000093D0040420F002DE9FF4F83B09A4688
:101A1000DDE9118793460446DDF84090FFF72AFF81
:101A2000054694F83D00202870D1192301227449FD
:101A30002046009501F010F80028F5D194F83C00FC
:101A4000012863D0012084F83C0020680168C907A0
:101A500003D1016841F0010101602068016821F4AF
:101A600000610160222084F83D00402084F83E009F
:101A700000262664C4F82490A4F82A80608D20856E
:101A80006048E062CDE9007553465A462046049905
:101A900000F0E4FE002879D1208DD0B1012821D0BA
:101AA0000228206824D0416980690090208D032895
:101AB00066D801282BD0544902283B464FF000023B
:101AC000009557D08846204600F0C6FF00285DD11B
:101AD0003AE02068416981690091016841F4007130
:101AE00001607DE02068016821F480610160F0E719
:101AF000016821F4806101602068016841F400619F
:101B00000160206841698069009069E075E02A46BB
:101B10003946204601F046F888BB54E02068016849
:101B200041F40071016020680069616A0870606AB0
:101B3000401C6062218D491E2185618D491E618591
:101B400021680969017042E02068016821F4806120
:101B5000016020680069616A0870606A401C606208
:101B6000208D401E2085608D401E60853B460022F2
:101B700041460095204600F06FFF00B9CEE705E032
:101B80002A463946204601F00DF818B1012007B069
:101B9000BDE8F08F20680069616A0870606A401CC7
:101BA0006062208D401E81B22185608D401E60855F
:101BB00020684269D243520712D4032903D1016835
:101BC00021F48061016020680069616A0870606AC0
:101BD000401C6062208D401E2085608D401E608507
:101BE000208D00287FF462AF202084F83D0084F827
:101BF0003E6084F83C600020C9E70220C7E700008F
:101C0000020010000000FFFF040001002DE9FF4F5B
:101C100083B09A46DDE9119793460446DDF840808B
:101C2000FFF728FE054694F83D0020287FD11923B0
:101C3000012240492046009500F00EFF002876D191
:101C400094F83C00012872D0012084F83C00206800
:101C50000168C90703D1016841F0010101602068F2
:101C6000016821F400610160212084F83D004020DA
:101C700084F83E0000262664C4F82480A4F82A9044
:101C8000608D20852C48E062CDE9007553465A46A8
:101C90002046049900F060FE70B930E02A463946CB
:101CA000204600F0B7FF58B1206C042804D120680A
:101CB000016841F400710160012007B0BDE8F08FB8
:101CC000606A216800780861606A401C6062218D4A
:101CD000491E89B22185628D521E62852268536930
:101CE000DB435B070BD469B100781061606A401C6C
:101CF0006062208D401E2085608D401E6085208D95
:101D00000028CBD12A463946204600F079FE00282B
:101D1000CAD154F83D0B016841F4007101602020E4
:101D200004F81E09E67766770020C6E7FFE7022081
:101D3000C3E70000020010000000FFFF10B586B0EE
:101D4000044614216846FEF7F3FA144920688842D5
:101D500021D113480021026842F0020202600068AB
:101D600000F0020005904FF4407000901220CDE981
:101D70000101032003900420049069460948FFF7FD
:101D800077FC07481030016841F4001101600068D9
:101D900000F40010059006B010BD00000054004093
:101DA0003038024000040240024881680278114441
:101DB000816070472CC001200B4810B5016841F4C8
:101DC00000710160016841F480610160016841F4C3
:101DD00080710160032000F099F80F2000F006F8F0
:101DE00000F04AF8002010BD003C024030B5054626
:101DF0001C4887B00024016841F0010101600068BF
:101E000006A900F00100009001A800F02BF900F0F5
:101E100059F915494000B0FBF1F11548134A491E24
:101E2000026040F2E732C0E90324C0E90114846192
:101E300000F07EFB040012D10D4800F0A7FB040067
:101E40000DD1192000F034F8102D07D200222946B8
:101E5000192000F03BF80748056000E0012407B0B6
:101E6000204630BD4438024040420F00000001408F
:101E700048C5012030C001200C4882B0016841F4FF
:101E800080410160006800F4804000900748001F16
:101E9000016841F0805101600068002200F080502C
:101EA00000900F21901E02B000F010B8443802409C
:101EB000002809DB00F01F02012191404009800049
:101EC00000F1E020C0F8001170470000F0B40E4BA4
:101ED0001B680C46C3F30223C3F10705042D00D988
:101EE0000425191D072901D2002300E0DB1E01266D
:101EF00006FA05F1491E214099409E40761E164083
:101F00003143F0BC01F088BB0CED00E0064900F065
:101F1000070208684FF6FF03184040EA0220034A10
:101F200010430860704700000CED00E00000FA0567
:101F30002DE9F0470E46050065D0DFF81481D8F88A
:101F40000000F7B200F00700B04207D288F8007036
:101F5000D8F8000000F00700B04254D128683D4C8A
:101F6000810712D5400703D5206840F4E050206077
:101F70002878000703D5206840F46040206020687E
:101F8000A96820F0F000084320602878C0072DD011
:101F9000304968680839012812D0022813D0032874
:101FA00011D00968890700292DDA216821F0030181
:101FB00001432160FFF75EFC814641F2883A0EE062
:101FC00009688903EFE709688901ECE7FFF752FC2C
:101FD000A0EB0901514502D90320BDE8F087206834
:101FE000696800F00C00B0EB810FEFD1D8F8001059
:101FF000404601F00701B14207D90770006800F0C0
:102000000700B04201D00120E7E72878400705D556
:102010002068E96820F4E050084320602878000731
:1020200006D52068296920F4604040EAC10020609C
:1020300000F058F82168084AC1F30311515CC84008
:102040000649086006480068FFF7D0FE0020C4E794
:10205000003C0240083802407CC7020838C001201A
:1020600030C001200F2202600C4A136803F0030302
:102070004360136803F0F0038360136803F4E053D4
:10208000C36012684FF4E05303EAD20202610448CD
:10209000006800F007000860704700000838024040
:1020A000003C02400448054900680968044AC1F33D
:1020B0008221515CC840704738C001200838024076
:1020C0008CC702080448054900680968044AC1F33E
:1020D0004231515CC840704738C001200838024086
:1020E0008CC70208154810B5006810F00C0214489F
:1020F00013D01449042A0FD0082A0ED10F4C241FE4
:102100002268236802F03F025B0207D52068C0F313
:102110008810A0FB010106E0084610BD2168C1F34C
:102120008811A1FB00010023FEF7AAF82168C1F382
:102130000141491C4900B0FBF1F010BD08380240D4
:102140000024F40040787D012DE9F84F04006ED0A2
:102150002078DFF84C93C007A9F104054AD009F1B3
:1021600004000168C1F38101012908D00068C0F3AF
:10217000810002280AD1D9F80000400206D528685B
:10218000800337D560680028E1D033E06068B0F59F
:10219000803F10D0B0F5A02F286810D020F48030F8
:1021A0002860286820F4802028606068A8B1FFF7C4
:1021B00061FB06460DE0286840F48030F4E740F407
:1021C00080202860F7E700BFFFF754FB801B6428DE
:1021D00073D828688003F7D50CE0FFF74BFB064661
:1021E00005E000BFFFF746FB801B6428F0D8286895
:1021F0008003F7D42078DFF8AC8280074FF0000A24
:102200003ED5A748001D016811F00C0F08D00068EA
:10221000C0F3810002280BD1D9F80000400207D496
:102220002868800716D5E068012800D112E033E164
:10223000E068B8B10120C8F80000FFF71BFB0646B4
:1022400005E000BFFFF716FB801B0228C0D82868F6
:102250008007F7D52868216920F0F80040EAC1001E
:1022600028600DE0C8F800A0FFF704FB064604E074
:10227000FFF700FB801B02281FD828688007F7D4CF
:102280002078000722D5864F87486169703771B181
:1022900001210160FFF7EEFA064604E0FFF7EAFAD3
:1022A000801B022809D838688007F7D50EE0C0F8EF
:1022B00000A0FFF7DFFA064605E082E0FFF7DAFA52
:1022C000801B02287DD838688007F7D42078400723
:1022D00068D5DFF8CCB100270BF13C0BDBF8000030
:1022E000C0000BD4DBF8001041F08051CBF8001097
:1022F000DBF80000012700F0805000906B4E306842
:10230000C00510D4306840F480703060FFF7B2FA36
:10231000009005E0FFF7AEFA0099401A022850D865
:102320003068C005F6D55E4EA0686C3601280FD027
:102330000528306810D020F001003060306820F0AF
:1023400004003060A068B8B1FFF794FA00900FE085
:10235000306840F00100F4E740F004003060F7E737
:10236000FFF788FA0099411A41F28830814266D815
:1023700030688007F4D50EE0FFF77CFA009007E0A4
:10238000FFF778FA0099411A41F28830814256D815
:1023900030688007F4D42FB1DBF8001021F08051B1
:1023A000CBF80010A069C8B33D49091D0968C1F305
:1023B000810102294AD00228504607D0C8F860009F
:1023C00000E03CE0FFF756FA04463BE04746C8F819
:1023D0006000FFF74FFA064605E000BFFFF74AFA34
:1023E000801B02282BD828688001F7D4D4E9070184
:1023F0000843A16A2E4A490802EB0141626A41EA98
:102400008211084394F82C1040EA0161C9F80010C9
:1024100001203866FFF72EFA044606E03EE000BFD2
:10242000FFF728FA001B022809D828688001F7D591
:1024300034E000BFFFF71EFA001B022802D9032078
:10244000BDE8F88F28688001F4D427E00128F7D090
:10245000D9F80000E26900F4800191421CD1226A9F
:1024600000F03F01914217D147F6C071626A014006
:10247000B1EB821F10D1A26A4FF0FF3300F440315C
:1024800003EB5202B1EB024F06D194F82C1000F08E
:102490007060B0EB016F01D00120D1E70020CFE7E1
:1024A0000438024000004742800E4742007000405E
:1024B0000000FFFF70B515460E46040003D094F8E7
:1024C000490010B107E0012070BD002084F84800E9
:1024D000204600F01DF804F108012068FEF70CFC0E
:1024E0003146A2682068FEF73BFCD4E90102294688
:1024F000236BFEF7E3FB2168A06851F8202042F02F
:10250000010241F82020012084F84900002070BD1C
:10251000FFF75AB84FF0E0210428086903D020F0F3
:1025200004000861704740F00400FAE77047704704
:1025300010B5040003D094F83D0010B107E001206D
:1025400010BD002084F83C00204600F01EF8022058
:1025500084F83D00211D206800F0F2FE012084F87F
:10256000460084F83E0084F83F0084F8400084F878
:10257000410084F8420084F8430084F8440084F861
:10258000450084F83D00002010BD704790F83D10D4
:10259000012901D001207047022180F83D10016817
:1025A000CA6842F00102CA6000681149884214D02A
:1025B000B0F1804F11D00F4988420ED00E498842A9
:1025C0000BD00E49884208D00D49884205D00D49EC
:1025D000884202D00C49884204D1816801F0070189
:1025E000062903D0016841F0010101600020704715
:1025F000000001400004004000080040000C0040C2
:1026000000040140004001400018004070472DE9DF
:10261000F04104460068C66805694FF00007A90745
:1026200013D5B10711D5F91E01610120207720686B
:1026300080698007204602D0FFF7E8FF04E000F041
:102640007EF8204600F07CF82777680716D57007DB
:1026500014D521686FF004000861022020772068FB
:10266000806910F4407F204602D0FFF7CFFF04E0DE
:1026700000F065F8204600F063F82777280715D5A5
:10268000300713D521686FF0080008610420207717
:102690002068C0698007204602D0FFF7B7FF04E03A
:1026A00000F04DF8204600F04BF82777E80616D5E5
:1026B000F00614D521686FF010000861082020771B
:1026C0002068C06910F4407F204602D0FFF79EFFCB
:1026D00004E000F034F8204600F032F82777E807ED
:1026E00008D0F00706D021686FF00100086120468D
:1026F00000F028F8280608D5300606D521686FF0C6
:10270000800008612046FFF711FF680608D57006B3
:1027100006D521686FF040000861204600F01CF8E3
:10272000A8060AD5B00608D521686FF02000086118
:102730002046BDE8F041FFF7FABEBDE8F0817047E2
:102740007047000000680349884201D1FFF72CBBA5
:102750007047000000000140704770B5040004D0CD
:1027600094F84100002510B106E0012070BD84F806
:102770004050204600F024F8242084F841002068CE
:10278000C16821F40051C160204600F099FE206824
:10279000016921F4904101612068416921F02A0119
:1027A00041612068C16841F40051C1606564202026
:1027B00084F8410084F842006563002070BD000089
:1027C00010B586B0044614216846FDF7B1FD1449E2
:1027D0002068884221D113480021026842F010028B
:1027E0000260006800F0100005900E48143802687E
:1027F00042F001020260006800F0010005904FF411
:10280000C06000900220CDE9010103200390072061
:10281000049069460448FEF72BFF06B010BD000087
:10282000001001404438024000000240FEE7016809
:102830004A69D24352050FD46FF480624A61002185
:1028400040F8301F202242738173026942F0040273
:102850000261017301207047002070472DE9F84F95
:102860000446006889460B9D01689846174641F466
:10287000806101602068016841F480710160009509
:102880004FF0011B0022594620460A9B00F0E4F855
:102890004FF4007A40B120680068C00501D5C4F843
:1028A00040A00320BDE8F88F216809F0FE00086110
:1028B0002B46284920460A9A00F016F9F0BB2068FA
:1028C0004169806900902A4620460A9900F0A2F9E1
:1028D00040B1206C04283AD12068016841F40071AD
:1028E000016034E0FEB2B8F1010F09D02168380A66
:1028F00008612A4620460A9900F08CF90028E8D1A0
:10290000206806612A4620460A9900F083F90028CB
:10291000DFD12068016841F48071016000950022D8
:10292000594620460A9B00F097F80028B3D1216849
:1029300009F0FF0040F00100086100E007E02B46CD
:10294000044920460A9A00F0CFF80028AAD00120B6
:10295000A8E70000020001002DE9F84304460068E2
:102960000D46DDE9089701689846164641F48071E6
:1029700001604B4600224FF001112046009700F005
:102980006BF848B120680068C00502D54FF40070AC
:1029900020640320BDE8F883216805F0FE0008618B
:1029A0003B464A461549204600F09EF888B9206803
:1029B0004169806900903A464946204600F02AF96C
:1029C00048B1206C042804D12068016841F40071EA
:1029D00001600120DEE7F5B2B8F1010F09D02168EE
:1029E000300A08613A464946204600F013F90028AB
:1029F000E7D1206805610020CCE70000020001005B
:102A000070B516460D4604461EE02046FFF70FFF40
:102A100008B1012070BD681C16D0FEF72BFF801B8B
:102A2000A84200D885B920684069C04340070BD54B
:102A3000002044F8300F20216173A073216941F018
:102A4000200121612073E4E720684069C04340070A
:102A5000DBD4002070BD00002DE9F04798461746F2
:102A60000D460446C1F30746DDF820902AE000BF7A
:102A7000B8F1FF3F26D0FEF7FDFEA0EB090141456E
:102A800002D8B8F1000F1DD12068012E16D0806940
:102A900025EA00000004000C12D00020B84211D139
:102AA000002044F8300F20216173A073216941F0A8
:102AB0002001216120730120BDE8F0874069E7E72C
:102AC0000120EBE72068012E0AD0806925EA00008A
:102AD0000004000C06D00020B842C9D00020EBE76B
:102AE0004069F3E70120F7E72DE9F04798461646DD
:102AF0000D4604464FF000094FF0200AC1F3074786
:102B000023E020684069C043400515D4206801686F
:102B100041F40071016021686FF480604861C4F87D
:102B2000309084F83DA084F83E90216C41F004017F
:102B3000216484F83C9021E0701C06D0FEF79AFED8
:102B4000A0EB0800B04203D816B1012F1FD021E03E
:102B50002068012F15D0806925EA00000004000CD0
:102B600018D000BF44F8309F84F80DA084F80E9070
:102B7000216941F02001216184F80C900120BDE819
:102B8000F087406925EA00000004000CEAD12068C3
:102B9000406901E02068806925EA00000004000C1B
:102BA000AFD1ECE72DE9F041002590460E460446F2
:102BB000202728E04069C043C0060CD454F8301BDD
:102BC0006FF01000486144F810596777A577206AC4
:102BD0002062257714E0FEF74DFEA0EB0800B0421E
:102BE00000D886B920684069C04340060BD544F838
:102BF000305F6773A573206940F020002061257362
:102C00000120BDE8F08120684169C9434906D1D45B
:102C10000020F6E770B516460D4604461EE0204635
:102C2000FFF705FE08B1012070BD681C16D0FEF745
:102C300021FE801BA84200D885B920684069C043A6
:102C400000060BD5002044F8300F20216173A073DB
:102C5000216941F0200121612073E4E72068406987
:102C6000C0430006DBD4002070BD000005482821C9
:102C70000088B0FBF1F0642800D96420C0F1640042
:102C8000C0B270473EC00120012202490248FEF74F
:102C90006BBA00003EC0012054C3012090B0074C25
:102CA0004FF0FF352A466946206929F06BF9012863
:102CB000F8D1694602A000F08BFCF3E714C00120B4
:102CC00025730D0A000000001FB500211648009171
:102CD00001910291134A039102604FF48032C0E9DE
:102CE000012101240161047680F820100F4AC0E917
:102CF0000A21C461C16080F830404461FEF790F958
:102D000008B1FDF7D8FF1020CDE90004072002909C
:102D100069460548FEF744F8002801D0FDF7CBFFCF
:102D20001FBD0000002001400CC301200100000F66
:102D30001FB500211648009101910291134A039199
:102D400002604FF48032C0E9012101240161047660
:102D500080F820100F4AC0E90A21C461C16080F8E0
:102D600030404461FEF75CF908B1FDF7A4FF05208F
:102D7000CDE900040720029069460548FEF710F8E7
:102D8000002801D0FDF797FF1FBD00000022014081
:102D900054C301200100000F0D4808B5016841F43B
:102DA000800101600068002200F48000009005218D
:102DB0003820FFF78BF83820FFF77AF8002205213A
:102DC0003920FFF783F8BDE808403920FFF770B8D5
:102DD0003038024010B58EB01C216846FDF7A8FAC5
:102DE0001C2107A8FDF7A4FA1A484FF02041102231
:102DF000016019494160062181600021C160C0E97C
:102E000004128161C16113020162C0E909139302D6
:102E1000C0E90B13416381634164022000900F20DD
:102E200002AC1123019084E80F0004240691CDE93F
:102E3000074009AC092084E80F000D9107AA6946F4
:102E40000448FFF737FB002801D0FDF734FF0EB030
:102E500010BD00005CC40120040100A02DE9F04772
:102E600086B014216846FDF763FA3B4800250168E7
:102E700041F020010160016801F020010591016825
:102E800041F080010160016801F080010591016855
:102E900041F002010160016801F002010591016841
:102EA00041F010010160016801F010010591016815
:102EB00041F008010160016801F008010591016815
:102EC00041F001010160016801F001010591016813
:102ED00041F0400101600068012200F04000DFF88D
:102EE0007C905402059021464846FEF7BEFCDFF870
:102EF00070A0002248F201015046FEF7B6FC4FF4E4
:102F00000068002241464846FEF7AFFC00940124C9
:102F1000CDE90145694648460395FEF7A9FB11270F
:102F20000226CDE90047CDE9024669465046FEF744
:102F30009FFBCDE90246CDE9008769464846FEF78A
:102F400097FBE00303958DE8510069465046FEF774
:102F50008FFB06B0BDE8F087303802400014024015
:102F6000000402400D4810B50B4901600C49416056
:102F700000214FF480428160C0E903124161816108
:102F8000C1610162FEF77CFC002803D0BDE810405F
:102F9000FDF791BE10BD000000540040ACC40120FC
:102FA000A08601000C4810B50A4901604FF4E131D8
:102FB0004160002181600C22C160C0E9041281617E
:102FC000C161FFF7CAFB002803D0BDE81040FDF740
:102FD00072BE10BD0010014000C50120FEE7FEE7F3
:102FE00038B52349234C0A6890420DD10BF072FE8C
:102FF0000328206806D020490A78BDE838401FA180
:103000001BF085B81FA12EE04A68904215D10BF045
:1030100061FE03280ED01D480068FDF790FB41ECCF
:10302000100B606801B053EC102BBDE8304018A1C4
:103030001BF06DB818A1606815E0896888420FD14F
:103040000BF048FE03280CD01548B0F9041000918D
:10305000B0F90230B0F9002012A1A0681BF057F8B7
:1030600038BDA06813A1BDE838401BF050B800007F
:1030700014C001209CC501203CC001204C69673A66
:10308000256400004C69673A0000000040C0012040
:1030900054656D3A2566000054656D3A00000000E5
:1030A00090C00120783A256420793A2564207A3A44
:1030B00025640000783A20793A207A3A000000002E
:1030C0002DE9F04786B0012403ADB6204FF0640926
:1030D000CDE9005400268DF80C008DF810604F46A5
:1030E0002346362224214848CDF80890FEF78EFD6D
:1030F0000120FEF757FACDE900548DF80C6001234A
:103100003622242140480297FEF780FD00274FF029
:1031100032084FF0050A04A98DE812010123332279
:1031200024213948FEF770FC7F1CFFB20F2F04D218
:103130009DF810103AEA0100EDD1CDE900544FF0AE
:1031400080088DF80C804F460123112224212E483F
:10315000CDF80890FEF75AFD8420CDE900548DF893
:103160000C0001231122242127480297FEF74EFD6F
:103170002020CDE900548DF80C0001234A2224219F
:1031800021480297FEF742FDCDE900548DF80C402E
:103190000123562224211C480297FEF737FDCDE972
:1031A00000548DF80C8001235F22242116480297D9
:1031B000FEF72CFD0120FEF7F5F9CDE900548DF85E
:1031C0000C6001235F2224210F480297FEF71EFDA9
:1031D000CDE900548DF80C4001230F2224210A4828
:1031E0000297FEF713FDCDE900548DF80C60012322
:1031F0001022242104480297FEF708FD6420FEF700
:10320000D1F906B0BDE8F087ACC4012010B586B096
:103210000446002003900490C822062103A88DE8EC
:10322000070001231A4624210B48FEF7EDFB28B1C5
:10323000FF20A0806080208006B010BDBDF80C008B
:1032400080082080BDF80E0080086080BDF8100066
:103250008008A080F0E70000ACC4012001460448CB
:103260000069002803D000230A2228F07BBD7047A4
:1032700014C0012010B54FF0E020006929F06CF86F
:10328000012803D0BDE8104028F0B2BC10BD0000FA
:1032900030B593B030216846FDF74AF814210CA8E8
:1032A000FDF746F81D480025016841F08051016096
:1032B000006800F0805011901948016841F4804185
:1032C00001600068022400F4804011900120039006
:1032D00010200490009406940820CDE90750A820FF
:1032E000CDE9090404200B906846FEF72DFF08B1D4
:1032F00072B6FEE70CA90F2081E831004FF4A05010
:103300000F904FF48050109005210CA8FEF710FE8E
:10331000002801D072B6FEE713B030BD403802403D
:10332000007000400248016841F47001016070477C
:1033300088ED00E00148FFF76AB9000048C50120A8
:10334000F0B50268274B284D284E294F294C4FF0E5
:10335000804C984209D0604507D0A84205D0B042C1
:1033600003D0B84201D0A04204D122F0700E4A68C6
:1033700042EA0E0298421BD0604519D0A84217D0ED
:10338000B04215D0B84213D0A04211D01A4DA84275
:103390000ED01A4DA8420BD0194DA84208D0194D95
:1033A000A84205D0184DA84202D0184DA84203D11A
:1033B00022F44075CA682A434D6922F080022A43EC
:1033C0008D68C5620D688562984201D0A04201D126
:1033D00009690163016841F0040101600121416153
:1033E0000260F0BD00000140000400400008004001
:1033F000000C004000040140004001400044014036
:103400000048014000180040001C0040002000401F
:103410000D48DFED0E0A008800EE100AB8EE400AF3
:1034200020EE200ADFED0A0A20EE200ADFED090A6D
:1034300030EE600ADFED080A80EE201AB3EE090ACA
:1034400031EE000A7047000044C00120333353407E
:10345000000080395C8F423F0AD7233B012202499A
:103460000248FDF781BE000044C001200CC30120CA
:1034700088B00D4C4FF4A075FFF7CAFF84ED000A29
:1034800010EE100AFDF75BF941EC100B07A153ECAD
:10349000102B684600F0ACF86846FFF7DFFE2846C0
:1034A00028F082F8E8E7000040C001205BCEC2B6F9
:1034B000C85D20CAFDD6B5A3BA252E32660000002D
:1034C00070B5044600680169E26821F44051114377
:1034D00001612169A068E2690843616911430843F9
:1034E0002168CA6849F20C639A430243CA602068A3
:1034F0004169A26921F44071114341613149206859
:10350000884202D03049884202D1FEF7DBFD01E05B
:10351000FEF7C8FDE2690023192164253226B2F5C1
:10352000004F626828D0A0FB0101930F9200FCF7C6
:10353000A7FE0146B0FBF5F06FF01802504301EB17
:10354000800006EB0010B0FBF5F000F0F002B1FBDC
:10355000F5F002EB0012B1FBF5F06FF018035843E1
:1035600001EB800006EB0010B0FBF5F000F00F005F
:1035700021681044886070BDA0FB010192185B4176
:10358000FCF77EFE0146B0FBF5F00201B1FBF5F061
:103590006FF01803584301EB800006EBC000B0FB4E
:1035A000F5F000F0F80002EB4002B1FBF5F05843F3
:1035B00001EB800006EBC000B0FBF5F000F0070067
:1035C000D6E700000010014000140140FEE70000B3
:1035D0000FB4054B10B503A9044A029802F0E6F9AE
:1035E00010BC5DF814FB0000BDFF000808C30120FB
:1035F0000FB4084B10B504A902AA039802F0D6F93B
:10360000044602A9002002F068FD204610BC5DF8C7
:1036100014FB0000DB6000080907090E002804DB2A
:1036200000F1E02080F80014704700F00F0000F176
:10363000E02080F8141D704702E008C8121F08C17E
:10364000002AFAD170477047002001E001C1121F23
:10365000002AFBD1704770B5044600256FF02F0695
:1036600008E02068411C2160007805EB850106EB2D
:10367000410145182068007800F036FC0028F0D1A0
:10368000284670BD2DE9FF5F2DED020B2DED0A8B55
:1036900086B0B0EE408AF0EE608A53EC182B51EC05
:1036A000180BDDE92058229EFDF75CF811D19FED43
:1036B000CD0B51EC180B53EC102BFDF76BF808D326
:1036C0009FEDCA0B51EC180B53EC102BFDF74AF889
:1036D00011D2CDE9005812AC029694E80F00B0EE7A
:1036E000480AF0EE680A00F089FA06B0BDEC0A8BD1
:1036F00006B0BDE8F09F9FEDBF0B51EC180B53ECEB
:10370000102BFDF72FF808D24FF0010B51EC180BDE
:1037100081F0004141EC180B01E04FF0000B700507
:103720009FEDB6BB00D4062518EE900AB54A8DED84
:10373000008BC0F30A54C0F31300104301909DEDB9
:10374000000B4FF0000A9FEDB01B51EC100B53EC37
:10375000112BA4F2FF34FCF7B5FE9FEDAD1B53EC2B
:10376000112BFCF7B5FE41EC190B2046FCF791FF3D
:103770009FEDA91B53EC112BFCF7AAFE9FEDA81B94
:1037800053EC112BFCF7FDFD53EC192BFCF7F9FD65
:10379000FCF79DFF0446FCF77CFF07469FEDA21B4C
:1037A000009153EC112BFCF793FE9FEDA11B53EC02
:1037B000112BFCF7E6FDFCF78AFF8146FCF769FF59
:1037C0009FED9D1B53EC112BFCF782FE41EC190B76
:1037D000009941EC107B9FED9A1B51EC100B53ECC0
:1037E000112BFCF775FE53EC192BFCF76BFE41EC2B
:1037F000190B53EC192BFCF76BFE41EC1A0B4FEA3B
:10380000095040F2FF3100EB01519FED8F0BCDE9E4
:1038100000A153EC102B51EC1A0BFCF7CBFE53EC30
:103820001B2BFCF7AEFD41EC100B51EC1A0B53ECCB
:10383000102BFCF7BFFE9FED861B53EC112BFCF702
:10384000A0FD41EC100B51EC1A0B53EC102BFCF7C4
:10385000B1FE53EC192B41EC1A0B9FED7FCB51ECD1
:103860001C0BFCF72FFE53EC1A2BFCF78AFD41ECE6
:103870001A0B53EC1C2B51EC190BFCF729FE53ECE3
:103880001A2BFCF797FE9FED761B53EC112BFCF7E0
:1038900078FD9DED001B53EC112BFCF719FE41EC5C
:1038A000190B51EC180B8DED009B53EC192BFCF709
:1038B00059FF08D253EC1B2B51EC190B641EFCF77B
:1038C00079FECDE9000104F16300C72801D2042785
:1038D00000E00527300520D59FED630B51EC180B58
:1038E00053EC102BFCF756FF13D89FED610B51ECF6
:1038F000180B53EC102BFCF735FF0AD2A54202DD62
:103900002D1B6D1E00E00025002746F480663C4616
:1039100003E015B1700500D56D1EB84502D9A8EBBE
:10392000070000E000208146B00702D50FB14FF03C
:1039300000094CB19DED000B51EC180B53EC102B12
:10394000FCF738FE41EC180BDDF850A0BBF1000F7E
:1039500005D051EC180B81F0004141EC180B26F416
:1039600000600095CDE901900DF1480BB0EE480ADA
:103970009BE80F00F0EE680A00F040F9054617B327
:1039800005F101092A46B00601D5452000E0652071
:10399000DDE91251159BA84700200A220521CDE937
:1039A00002207F1ECDE90471E00F002C00DA644292
:1039B000CDE90040DDE912014A46159B01F03AFFCE
:1039C0000546B00707D40AE02A46DDE912416D1C1E
:1039D0002020159BA047A5EB0A014145F4D32846BA
:1039E00083E60000FFFFFFFFFFFFEF7FFFFFFFFF0A
:1039F000FFFFEFFF000000000000000000000000DB
:103A0000000024400000F03F000000000000F83FEC
:103A100061436F63A787D23FFB799F501344D33F25
:103A2000B3C8608B288AC63F71A379094F930A40B7
:103A3000000000000000E03FEF39FAFE422EE63FB2
:103A40001655B5BBB16B02400000000000002C40D1
:103A500000000000000018400000000000000040CE
:103A6000000000000000F03F2D431CEBE2361A3F3F
:103A70000000000080842E412DE9FF5F82B000210C
:103A8000DDE90430020DDDF840B0034318D044F600
:103A90001050A2F2FF3242431514119801281FD092
:103AA000A5EB0B00401C5FEA000A4FF000064E4FEA
:103AB000DFF83891B046504615D5CAF1000413E03E
:103AC000119801244AA3012801D16FEA0B01029841
:103AD000119AC0E90031C0E9024206B0BDE8F09F8A
:103AE000CBF10000DFE704460021404A491842EBD1
:103AF0000450CDE9001012E0E00707D032463B4603
:103B000040464946FCF7E4FC8046894632463B463F
:103B100010461946FCF7DCFC06460F466410002CE4
:103B2000EAD1DDE90401DDE90023BAF1000F06DA8C
:103B3000FCF7CEFC42464B46FCF7CAFC05E0FCF71E
:103B400039FD42464B46FCF735FD04460E46002241
:103B5000284BFCF71FFE03D84FF0FF30014607E06B
:103B60000022254B20463146FCF70BFCFCF7CEFE2D
:103B7000102409E0002C0ADB0A220023FCF780FB5A
:103B8000039B30321A55641E50EA0102F2D1641CC4
:103B9000039AC4F111031444119A012A03D001229B
:103BA00008430DD10AE0084304D000204FF0110B68
:103BB000119072E7A3EB0B056D1E0DE05B4504DD74
:103BC0004FF0000205F1010504E003DA4FF00002B6
:103BD000A5F10105002AECD002981199C0E9023143
:103BE000C0E9004579E70000000014400000F03F04
:103BF000300000000000F0430000E03F2DE9FF5FCF
:103C00002DED020B2DED068B8CB0B0EE408AF0EE60
:103C1000608ADDE923759FEDA19B002453EC182BEE
:103C200051EC180BDDF88880FCF79CFD02D00320D6
:103C30009CA10AE09FED9C0B51EC180B53EC102B50
:103C4000FCF790FD09D2042099A1CDE90010CDE93F
:103C5000027514AC94E80F001DE19FED970B51EC39
:103C6000180B53EC102BFCF795FD07D2680702D513
:103C7000042093A1E9E7032093A1E6E79FED930BCE
:103C800051EC180B53EC102BFCF784FD08D39FED7F
:103C9000910B51EC180B53EC102BFCF763FD12D277
:103CA000CDF80080CDE9017514ACB0EE480A94E877
:103CB0000F00F0EE680AFFF7E5FC0CB0BDEC068BD8
:103CC00006B0BDE8F09F4FF0000B53EC192B51EC00
:103CD000180BFCF747FD07D24FF0010B51EC180B06
:103CE00081F0004141EC180B680501D44FF0060843
:103CF0000DF1100A794E9FED7A9BB8F1090F07D9A3
:103D000030210AF80410641CA8F10108202CF1D31A
:103D100051EC180BFCF7DBFC8146FCF7BAFC53ECCA
:103D2000182BFCF7D2FB41EC100B06EBC8000090FF
:103D300090ED001B51EC100B53EC112BFCF7C8FB62
:103D400041EC1A0BFCF7E2FC0646FCF7B3FC53EC23
:103D50001A2BFCF7BAFB41EC1A0B53EC192BFCF7AE
:103D600019FD13D2761C3046FCF7A4FC41EC100B75
:103D7000009890ED001B51EC100B53EC112BFCF74D
:103D800009FD10D8002609F101090CE053EC192BAC
:103D900051EC1A0BFCF7E6FC05D306F00100401EBF
:103DA000304200D1761CB8F1000002D00A22514600
:103DB00025E04846FCF76DFC53EC182BFCF785FB1F
:103DC00041EC180B53EC192BFCF7E4FC06D953EC2F
:103DD000192B51EC180BFCF7DDFC1FD25FEAC97000
:103DE0001CD009F1010919E0B6FBF2F302FB1363E1
:103DF000B6FBF2F630330B55401E641C2EB1202C5E
:103E0000F2D31BE00A55641C00E03022202C15D2AE
:103E1000401EF7D22E200AF80400641C0A205246E5
:103E2000202C0BD299FBF0F300FB1391303111558C
:103E300099FBF0F1641C5FEA0109F1D1A80711D4E4
:103E4000E8070FD02FB105F00C0050EA0B0000D0AE
:103E50007F1E30205146BC4204D2202C13D208557C
:103E6000641CF8E7202C0ED2BBF1000F01D02D21ED
:103E700006E0680701D52B2102E0280703D52021A1
:103E80000AF80410641CCDF800A00395CDE90147A1
:103E900014AE96E80F0001F052FD0EE7000000009E
:103EA000000000006E616E00FFFFFFFFFFFFEFFFED
:103EB000666E692D00000000FFFFFFFFFFFFEF7F30
:103EC000666E692B00000000666E6900000000004D
:103ED00065CDCD410000000065CDCDC14007030890
:103EE000000000000000E03F3038092801D8012020
:103EF000704700207047000010B54021074801F0CE
:103F000081F800221E21064821F022FC054CA06009
:103F100002F01EFD0020207010BD000078D40120AA
:103F2000F96900088CC2012070B5B1F90030B2F90E
:103F30000040A34200DC23460380B1F90250B2F9ED
:103F40000240A54200DD2C464480B1F90460B2F97C
:103F50000450AE4200DA35468580B1F90610B2F958
:103F60000620914200DB1146C1800120AB4201DCFA
:103F70008C4200DD002070BDF8B50D460446B0F956
:103F80000000B1F900101646884247DBB4F9021070
:103F9000B5F90220914241DBB4F90410B5F90420CF
:103FA00091423BDCB4F90610B5F90620914235DCAC
:103FB00096B3ADF800006088ADF80200324669465D
:103FC000284600F099F8002827D0A088ADF8000016
:103FD0006088ADF8020032466946284600F08CF849
:103FE00000281AD02088ADF80000E088ADF8020063
:103FF00032466946284600F07FF800280DD0A08898
:10400000ADF80000E088ADF8020032466946284667
:1040100000F072F8002800D00120F8BD0020F8BDA3
:10402000B0F90020B1F904309A4213DCB0F9042051
:10403000B1F900309A420DDBB0F90220B1F9063037
:104040009A4207DCB0F90600B1F90210884201DBA0
:104050000120704700207047F8B50D460446B0F9BE
:104060000400B1F900101646884243DBB4F906009B
:10407000B5F9021088423DDBB4F90000B5F904102F
:10408000884237DCB4F90210B5F90620914231DCE0
:1040900076B3ADF800006088ADF80200324669469C
:1040A000284600F029F818BBA088ADF80000608809
:1040B000ADF8020032466946284600F01DF8B8B94E
:1040C0002088ADF80000E088ADF80200324669466D
:1040D000284600F011F858B9A088ADF80000E08833
:1040E000ADF8020032466946284600F005F808B1EE
:1040F0000020F8BD0120F8BD2DE9FC4114460E4614
:10410000B1F90020B0F9001005468A423ADBB5F952
:104110000400824236DCB6F90270B5F902209742FB
:1041200030DBB5F906309F422CDC002C75DD401ADF
:104130009A1A401C521C00B212B200EBD07002EB73
:10414000D27240105210904200DB1046844200DDD3
:104150000446ADF80010288800222044ADF8040081
:104160006888ADF80200688831462044ADF8060042
:104170006846FFF7C1FF40B1BDF804002044ADF828
:1041800004003FE00020BDE8FC81E8880022001B1D
:10419000ADF80200E888ADF8060031466846FFF742
:1041A000ABFF28B1BDF804002044ADF8040011E0D5
:1041B000A8880022001BADF80000A888ADF8040014
:1041C00031466846FFF798FF50B1BDF80000001B6C
:1041D000ADF80000BDF80200001BADF8020016E0CB
:1041E0006888ADF80200688800222044ADF8060017
:1041F00031466846FFF780FF70B1BDF80000001B34
:10420000ADF80000BDF806002044ADF806003146C8
:1042100068461EF0EBFDB6E7FFE70120B3E710B5F7
:10422000B1F90040B2F900309C4200DA2346038025
:10423000B1F90240B2F902309C4200DA23464380D1
:10424000B1F90440B2F904309C4200DD234683807A
:10425000B1F90610B2F90620914200DC1146C18086
:1042600010BD0000FEB5074621F020FA0025354CB0
:104270000646009537B1F8686060384621F036FB95
:10428000606802E014F04AFB606000691EF04AFDBD
:104290006068406908B11EF045FD6068C0691EF0A5
:1042A00041FD6068006A1EF03DFD60680169E1B390
:1042B0001EF0E4FF1EF060FF6068B0F8501199B383
:1042C0000168097C890715D514F086FB401E07B2EA
:1042D000606814F03BFB401E03B20022114601A8A7
:1042E000009712F0C4F9606801A90268926B5160EE
:1042F00004F066FF60684FF4807130301AF028FBDC
:104300006068202100F598701AF022FB6068A0F820
:104310005051304621F0C4F9009060680068436A4B
:1043200013B122680099984700E007E01AF052F9AB
:1043300000F036F8BDE8FE4000F006B8A0F8505195
:10434000FEBD000050C1012070B50A4D002400BF21
:10435000C4EBC40655F8260008B11AF0AFF905EB16
:1043600086001C211AF0F4FA641CE4B2042CEFD38A
:1043700070BD000054D50120084949680AE04A6828
:10438000824202D00A68824203D10A7E42F00102D0
:104390000A7649690029F2D17047000024C1012042
:1043A000704700000421014800F02CBE6CD40120AD
:1043B0001C21014800F026BE84D401202DE9FF5FB6
:1043C0000446DDE90E0613B9B0F5807F7ED0B6F95C
:1043D00000504FF0FF376D42454307EB25252DB2C6
:1043E0002580B6F902C0CCF1000C0CFB00FC07EBF9
:1043F0002C273FB26780B6F900C0A1EB0C01414306
:104400004FF0020C0CEB212109B2A180B6F9028019
:10441000A2EB080242430CEB222000B2E080002B0A
:104420007ED04FF00A0A93FBFAF5684200EB800059
:1044300003EB400705F1010928B221F097FB00903A
:104440000FFA89F021F092FB83465A3528B221F009
:104450008DFB804609F15A0000B221F087FB01462E
:10446000009AC7F10A0000FB02F300FB08F00BFB07
:10447000073301FB070193FBFAF291FBFAF04FEAD5
:10448000601AB4F90010B4F902000AFB01FCCDF87F
:104490000CC05511378805FB10C207EBA2220FFA9A
:1044A00082F905FB01F2BB46029277880AFB0021E4
:1044B00007EBA1210BB2B4F90410BE460AFB01FCC4
:1044C00005FB10C20BEBA22216B200E02FE005FBA9
:1044D00001F7CDE9007CB4F90680DDF80CC00AFBD9
:1044E000007005FB18C1DDF804C0009F05FB18C56E
:1044F000029A0AFB087C0AFB08220BEBA1210EEBB7
:10450000AC270EEBA02009B20EEBA2220BEBA525E7
:104510000FFA87FC00B212B22DB24F46494500E0B7
:104520000EE000DA0F46B54216DAA84615E0002084
:104530002080491E6080A180521EE280BDE8FF9F5E
:1045400032882A44228072883A4462803288114438
:10455000A180718808444FE0B046474504DA4F46D1
:10456000494506DA0F4604E0B54201DA2F4600E07D
:10457000374627804F46494500DD0F46B54201DDED
:10458000A84600E0B046474503DD4D46494505DCF9
:1045900001E0B54201DD294600E03146A1809A42A2
:1045A00001DA154600E01D46844501DA614600E067
:1045B00001468D4205DA9A4201DA114606E01946B3
:1045C00004E0844501DA614600E0014661809A42D8
:1045D00001DD114600E01946844501DD654600E035
:1045E0000546A94205DD9A4201DD104604E0184661
:1045F00002E0844500DD6046E0809FE72DE9FE4F44
:104600000446D0F800B0B0F90800E589081AB4F9FA
:104610000A10511AD4E90932B5F5807F38D0A5893E
:10462000ADB3A66B704345114E437011266BE16A22
:1046300006FB05F701FB1077694306FB001003EB4F
:10464000A72902EBA02080460612B4F904004FEA25
:104650002927B8424EDD002F4CDBB4F90610B142D9
:1046600048DD002E46DB94F834104A0745D58A070A
:1046700004F1140322D400FB067045004FF0020A37
:104680000BEB0501524618461AF018F927E00DE029
:10469000256BE66A05FB00F706FB1177464305FB31
:1046A000016003EBA70902EBA000CCE7A56B684310
:1046B0004D4303EB601902EB6510C4E700FB067085
:1046C00000EB40054FF0030A0BEB050102221846F0
:1046D0001AF0F4F8E81C584410F8010CA07594F88E
:1046E0003400C0071FD04FF4FC60ADF80000A18A71
:1046F000814218D10020BDE8FE8F32B204F11800CB
:104700002369CDE90102002539B2AA468B4617F08C
:1047100045FC0090BDF80000A082DDE90102594689
:1047200017F0D4FBDAE7E07C78B1A4F83C90A4F869
:104730003E80A4F84070A4F84260656484F848A004
:104740002046BDE8FE4F00F002B80120D3E72DE976
:10475000F04F044690F83C10D0F8009090F83E00DE
:1047600087B04FF0FF36702907DAB4F9402035469C
:10477000012A00D5002580310DE0902916DDB4F91D
:104780004020B4F904300125521C9A4200DB002578
:10479000A1F27F114942C9B28846702809DAB4F9FA
:1047A0004210012900D50026803010E00025FF21AD
:1047B000F2E790280DDDB4F94210B4F90620012685
:1047C000491C914200DB0026A0F27F104042C7B294
:1047D00001E00026FF2760690090A07D0590002081
:1047E00083468246049094F83400400744D594F8F8
:1047F0004810606C11FB05014944022201A81AF01F
:104800005DF8A08894F8481010FB01F0616C02225A
:1048100006FB0011494403A81AF050F8A18894F847
:10482000480011FB00F1626C06FB012210FB0590B1
:104830001118022202A81AF041F894F834008007F7
:1048400061D594F84800626C10FB052300EB090168
:104850000B4413F8013C0493A38813FB00F306FBFD
:104860000322114411F801BC10FB0500111801EBE3
:10487000090010F8010C45E0B4F84000B4F94220FA
:10488000284401B204F118008146236917F086FB21
:104890000190B4F84200B4F94010304402B254F828
:1048A000103F484617F07AFB0390608E236830442F
:1048B00002B2208E284401B2484617F06FFB0290E6
:1048C00094F82400103C80071DD5B4F9422034F838
:1048D000400F284401B2484617F0F8FA0490608867
:1048E000B4F90010304402B2484617F0EFFA83469C
:1048F0006088304402B234F84009284401B2484686
:1049000017F0E4FA824694F83400424645468007A0
:1049100035D5059810FB08F30499C8F1FF0011FB89
:104920000031C1F307211BFB08F61AFB0060C0F33E
:10493000072011FB07F3C7F1FF0610FB06331B0A24
:10494000A375022907D8022803D8002007B0BDE8C4
:10495000F08F002702E0022800D8FF2705980228E0
:1049600000D800220498022800D8FF22BBF1020FD1
:1049700000D80025BAF1020F03D8FF2501E0FF207F
:10498000A075EAB1FF2A04D0DDE9000113F0A4FB11
:104990000090BDB1FF2D17D0DDE902102A4613F0BB
:1049A0009BFB049097B1FF2F05D001463A46009833
:1049B00013F092FB0090BDF80000A0820120C5E733
:1049C0000198E5E70298ECE70398EAE7BDF81000E4
:1049D000F3E700002DE9F0470446B0F908000A2784
:1049E00000026062B4F90A000002A062B4F90C107F
:1049F00091FBF7F5684200EB800001EB400668424E
:104A000005F1010800B221F0B1F88246E84300B296
:104A100021F0ACF88146C5F15A0000B221F0A6F8A9
:104A20000546C8F15A0000B221F0A0F8C6F10A010B
:104A300001FB0AF3024609FB0630694390FBF7F0DD
:104A400002FB061191FBF7F14011E062481120636F
:104A5000A07C17F050FB94F8341060F3000184F848
:104A60003410A07C17F037FB94F8341060F3410148
:104A700084F83410A07C042824D0052822D00628ED
:104A800020D021F0040100BF84F834102168216295
:104A9000A16921F0E00160F30401A08860F3942192
:104AA000E08860F35F51A161E0894FF4001101EBF0
:104AB0005001B1FBF0F0A063FF20A075208AA08216
:104AC000BDE8F08741F00401DEE700002DE9F04188
:104AD00015460E460746114C20F0E8FD80462B4651
:104AE00032463946204617F087FE20B10020A062EA
:104AF000E06950B110E02C21204619F029FF4FF059
:104B00000040A0620020BDE8F081404620F0C8FDD2
:104B1000E06108B90120E0612046F4E7A8D4012053
:104B200010B51421074800F06DFA17F02BFE40B1C4
:104B30000549016005494160054981600549C16039
:104B400010BDFEE790D40120B1C101082DC50108B8
:104B5000A5C601087DC1010870B50D4604461021A7
:104B6000284619F0F5FE20680078012804D00228B4
:104B700007D0042807D008E0208A2880608A68804F
:104B800003E0E06800E00A20686020684268002ACC
:104B900003D02946BDE87040104770BDFEB5866A57
:104BA0000446BEB9A08A218A0844A082E08A618AAC
:104BB0000844E08220460AF010FD060079D0204625
:104BC0000DF02AF900220921304616F0C1FC607868
:104BD00080076ED4208A10B9608A002869D0002529
:104BE000ADF80450ADF8085094F83C0000F00F0008
:104BF0000328304616D01BF033FC074630461BF026
:104C0000E9FA03460C200090B4F912103A463046F7
:104C10000AF09AF8ADF8080030461BF02DFBC107EA
:104C200012D017E01BF0B0FB074630461BF04CFBE0
:104C3000024603200090B4F910103B4630460AF0BB
:104C400083F8ADF80400E7E7BDF90410002901DDA1
:104C5000ADF80450810705D4BDF90410002901DA2C
:104C6000ADF80450410705D4BDF90810002901DD55
:104C7000ADF80850000705D4BDF90800002801DA96
:104C8000ADF8085002AA01A9204623F040FA0023FB
:104C9000BDF90820BDF9041030461DF0E7FBA08ADD
:104CA000BDF804100844A082E08ABDF8081008444A
:104CB000E082FEBD2DE9FC5F0446806A5FEA000BDE
:104CC00071D094F83C0000076DD018F04FF80190B7
:104CD00000684021457E58461CF06CFB4FF00008F0
:104CE00018B9A4F81A80A4F8188058461BF0AAFB3B
:104CF000824658461BF0ADFB064694F83C004FF048
:104D0000640900F00F000C2802D003284CD09AE070
:104D1000A4F8188056B1B4F91A50002718F026F8F4
:104D200000684946407EC0F1640022E0608BC5F116
:104D3000640110FB01F191FBF9F0608358461BF010
:104D400049FA054658461BF08BFB02460C200090A2
:104D5000B4F91A102B46584609F0F6FF6083024654
:104D600000231EE07A1917B210FB05F292FBF1F254
:104D700015B2002DF6D1ADF80070A4F81A806A467D
:104D80000021204623F0C3F941F6FF72BDF900303F
:104D9000514258460AF086FDBDF800100123084430
:104DA00002B200214CE09AE0A4F81A80BAF1000F98
:104DB0000AD0B4F91850002717F0D8FF0068494608
:104DC000407EC0F1640022E0208BC5F1640110FB3D
:104DD00001F191FBF9F0208358461BF075FA054666
:104DE00058461BF0D1FA034603200090B4F918107E
:104DF0002A46584609F0A8FF2083014600231EE0FA
:104E00007A1917B210FB05F292FBF1F215B2002DE0
:104E1000F6D1ADF80070A4F818800022694620464B
:104E200023F075F941F6FF72BDF900305142584642
:104E30000AF0B0FCBDF800100123084401B20022C2
:104E400058461DF013FB208B002848D1608B0028AA
:104E500045D1C6B958461BF003FB054658461BF022
:104E6000B9F9002D06DC00280DDD002D02DA012342
:104E70002A4604E0002806DA0123404202B200215B
:104E800058461DF0F3FABAF1000F19D158461BF03D
:104E90001BFA054658461BF077FA002D07DC002860
:104EA0000EDD002D03DA01230022294605E000284B
:104EB00006DA01230022404201B258461DF0D6FA1C
:104EC0000A215846019A16F043FB6078800706D401
:104ED00014F83C0F20F00F00207044F8148CBDE84B
:104EE000FC9F00007FB50E46040003D113F016FDB1
:104EF000040023D00025FEB1ADF80050ADF80250FB
:104F000013F024FD401EADF80400204613F064FDAC
:104F1000401EADF806006A46314602A8FFF704F8C5
:104F200000280BD02068017C890708D5DDE9000145
:104F3000C4E90C0101202AE0A0F850517FBD82692C
:104F40000AB102A9904700260BE000BF04EBC6019E
:104F5000002202A83031FFF70FF80028EED1761CAE
:104F6000B6B2B4F85001B042F0D880B2202804D2D2
:104F700004EBC00002A9303004E0A4F8505104F161
:104F80003000694611F0CAFAB4F85001401CA4F888
:104F9000500160680028D1D020F0B4FC7FBD70B50E
:104FA000054600F012F804460CE02146284600F0C1
:104FB0001EF806462146284600F071F8204619F0F2
:104FC0007DFB3446002CF0D170BD002800D0406835
:104FD000704700B503460022FFF7F7FF03E01846CD
:104FE000521C00F004F80100F9D1104600BD006821
:104FF000091D40587047006840587047002800D08D
:105000008068704700224260C91C21F00301826061
:105010000160704770B504460068083019F0C4FAA2
:10502000050013D001460022204621F017FD294635
:105030002046626821F00CFD616819B12A462046BD
:1050400021F00CFD6560A06800B9A560284670BD20
:1050500070B504460068083019F0A6FA050013D0B0
:1050600001460022204621F0F3FC29462046A26892
:1050700021F0F4FCA16819B12A46204621F0E8FC91
:10508000A560606800B96560284670BD28B14168B8
:1050900009B9806808B1002070470120704770B5D9
:1050A00004000DD0FFF791FF00228842204608D16E
:1050B000FFF79DFF6060011E01D000221EE0A2608C
:1050C00070BDFFF79BFF8842206808440AD1016841
:1050D000A16029B12046BDE87040002221F0B8BC93
:1050E000626070BD05682046FFF781FF06460246F4
:1050F0002946204621F0ACFC2A4631462046BDE830
:10510000704021F0ABBC10B50446006882680AB15B
:105110002146904720680068002801D02060F5E70C
:1051200010BD8068002801D0B0F91600704700005B
:105130002DE9F047074690B0408C189E40F00400DF
:10514000788490463A8499468A46328938461BF0DC
:105150009DFF0546A7F820903289514638461BF03E
:1051600095FF0446788CA54220F00400788403D192
:105170002904B1EB044F68D0A7F82080328951464A
:1051800038461BF083FF05468046A7F8209051461D
:1051900038460BF05FFD318900682A461FF0F0F9B0
:1051A0003089602823D147F6FF794D4501D04C4521
:1051B0001DD138461CF0B5F800EBD07045103846CC
:1051C0001CF0AFF800EBD0704010C84506D1691C48
:1051D000431C994200DA00E0194688464C4506D146
:1051E000691C421C914201DA6C1C00E0144619480B
:1051F000FFF710FF05002BD02F60C5E9038430892D
:10520000A8806846C5F808A010F0A0FC1248FF214D
:10521000CDE90050114802901148039000200790FA
:10522000CDE9080130880A9070889DF83E10404210
:105230000B90F0680690002060F300018DF83E109E
:1052400030690590684610F0F5FC10B0BDE8F087B5
:10525000FEE700009CD40120DDAE0208D1B00208B8
:105260002DB0020814210148FFF7CCBE9CD40120C8
:105270002DE9FC5F002592468B4606462C46042706
:1052800043F60F0843F60E0900E100BFF16807EB93
:10529000C400085882017DD480B230EA0B0212D0DB
:1052A0005FF0000230EA0A000FD00020824271D085
:1052B00051F8340001AA41F6100100901EF046FF9B
:1052C000002868D103E00122ECE70120EEE701AA03
:1052D00041F6110100981EF039FF002873D101AA90
:1052E00041F6120100981EF031FF00286BD101AA8F
:1052F00041F6130100981EF029FF002863D101AA8E
:1053000041F6150100981EF021FF00285BD101AA8B
:1053100041F6140100981EF019FFE0BB01AA41F20A
:10532000690100981EF012FFA8BB01AA43F20C010C
:1053300000981EF00BFF70BB01AA43F20D0100980C
:105340001EF004FF38BB01AA41F2010100981EF0D3
:10535000FDFE00BB01AA41F2040100981EF0F6FE1A
:10536000C8B901AA41F2020100981EF0EFFE90B9FF
:1053700001AA41F2030100981EF0E8FE58B901AA03
:1053800041F2050100981EF0E1FE20B901AA41F2A8
:10539000060101E079E016E000981EF0D7FE90B912
:1053A00001AA41F2320100981EF0D0FE58B901AABC
:1053B000414600981EF0CAFE28B901AA4946009845
:1053C0001EF0C4FE10B10320BDE8FC9F01AA40F608
:1053D0000A0100981EF0BAFEF0BB01AA40F60B01CC
:1053E00000981EF0B3FEB8BB01AA414600981EF01B
:1053F000ADFE88BB01AA494600981EF0A7FE58BB27
:1054000001AA40F63C0100981EF0A0FE20BB01AAB4
:1054100040F63D0100981EF099FEE8B901AA40F659
:105420003A0100981EF092FEB0B901AA4FF404614F
:1054300000981EF08BFE78B901AA40F6450100984D
:105440001EF084FE40B901AA40F6410100981EF00A
:105450007DFE08B901AA00E013E040F64201009881
:105460001EF074FE68B901AA40F6430100981EF0D0
:105470006DFE30B901AA40F6490100981EF066FEA3
:1054800008B1022501E005B90125641C708CC0F348
:10549000C500A0423FF6FAAE284695E701484068AD
:1054A0007047000050C101207047C0F30410072866
:1054B00000D907207047000010B518210348FFF7F6
:1054C000A1FD03490120087010BD000048D401204F
:1054D000B8C201202DE9F04190460C46050015D0D8
:1054E000FAF731FF0A4F06462146BA682846904728
:1054F0000446BA682819414690470146701A03E0ED
:105500006218AA5C2A55641CA042F9D2BDE8F08159
:10551000CCC201202DE9F041094D90460E466A6843
:105520001C46074619469047306020B120686A68DB
:10553000384400219047C8F80000BDE8F081000021
:10554000CCC201202DE9F04F87B08A46DDE9105822
:105550001F4693460446002105B129805CB120789E
:10556000002809D0BAF1000F05D0002618F0060F68
:1055700015D0002004E0002007B0BDE8F08F401CEB
:10558000215C0A2904D00D2902D00029F7D100E0BE
:10559000401C002DF0D04FF0FF312980ECE75FEA8E
:1055A000887001D541F6FF77894608468DF81410BA
:1055B000049127E00498CDF8189068B34FF0000CE0
:1055C00005AA06ABCDF80CC0CDF80080CDE90132BC
:1055D00020443B465A46514620F0F2FA06997A1A80
:1055E000314417B20EB288B1049901440491207875
:1055F0000A280BD00D2809D0605C0A280FD00D288E
:105600000DD00846205C08B1002FD3DC049848B1C7
:1056100005B12E800498AFE74FF0010CD0E7481C8D
:105620000490F3E7064A04A9204652689047002DEB
:10563000F0D001460022504616F065F806B2E8E7C1
:10564000CCC201202DE9F0411746884606001ED045
:10565000002F1CD0FAF777FE04463846FAF773FE9F
:10566000050014D00B4A2C444146926830469047BE
:10567000411903E0621BB25C3255641EA142F9D9A4
:1056800030442A463946BDE8F04119F023B9BDE857
:10569000F0810000CCC2012000230278232902D02F
:1056A000012A0DD00FE02AB10021012A04D0022ADC
:1056B00004D008E0012101E0017004E0017001E084
:1056C000202902D00123184670470221F6E72DE970
:1056D000F0410E468046024600213346084620F03F
:1056E000ABFC04460027401C18F05EFF050008D004
:1056F0002F5533464246611C20F09EFC2846BDE8EB
:10570000F081FEE72DE9F0471E4614460D4682461D
:10571000DDF8209015E000BF4FEA540808FB06575B
:10572000394650464A469047002808DD44F30000B9
:10573000C0EB540407EB0605A4F1010401E005DA0F
:105740004446002CE8D12046BDE8F0873846FBE708
:105750002DE9FF5F91468A468346DDE90E20DDE9AB
:105760001341DDE91167DDF840C05FEA81784FF051
:1057700030051AD45CB15FEAC17808D001F00C089A
:1057800058EA0C0803D0641E01E01554401CB842CE
:1057900004D22028F9D301E01554401C5FEAC178F7
:1057A00003D0A04201D22028F6D35FEAC16825D5F4
:1057B0005FEA41580AD448B1B84201D0A04205D1AD
:1057C000401E03D0102E03D1401E04E0102E02D044
:1057D000022E0AD00EE08E0603D420281ED2782690
:1057E00006E020281AD2582602E0202816D2622687
:1057F0001654401C202811D21554401C20280DD2CC
:10580000BCF1000F01D02D2506E04D0701D52B2559
:1058100002E00D0702D520251554401CCDE90020DB
:10582000CDE902414A465146584600F088F804B096
:10583000BDE8F09F2DE9F04F8FB099468B46DDE92A
:105840001818DDE91C63DDE91A47924686460022F6
:1058500009B923F01003580507AD00D5C9B1B1FB54
:10586000F4F004FB1010C0B20A2801D2303009E075
:105870005FEA836C02D54FF0410C01E04FF0610C00
:1058800060440A38B1FBF4F1A854521C09B1202A33
:10589000E5D3CDF80880CDE90563CDE90052CDE927
:1058A00003474B46524659467046FFF751FF0FB02B
:1058B000BDE8F08F2DE9FF4F8FB01CACDDE92395DB
:1058C00094E8030820AC94E8C004002450EA0102E4
:1058D00001D125F010056A050DF11C0802D550EA2A
:1058E000010217D032463B46FAF7CAFCD2B20A2A66
:1058F00001D2303206E0AB0601D5412300E061233E
:105900001A440A3A08F80420641C50EA010201D043
:10591000202CE7D3CDE90084CDF808B0CDE905957A
:10592000CDE9036A0FAF97E80F00FFF711FF13B03F
:10593000BDE8F08F9A4200D28854704770472DE935
:10594000FF5F80460FA8DDF838B090E8C004144629
:1059500091465FEA8A7014D1354607E02246641CFE
:105960002020C446039B0199E0476D1CBD42F5D33E
:1059700007E02246641C761E039B1BF80600019973
:10598000C047002EF5D15FEA8A7006D409E02246AE
:10599000641C2020039B0199C047A4EB0900B84276
:1059A000F5D304B02046BDE8F09F00002DE9FF4F7D
:1059B00095B09B468946064600250FE2252877D1FB
:1059C00000242746F84A0121059400E0044316F814
:1059D000013F203B01FA03F01042F7D130782A282A
:1059E00011D06FF02F033078A0F13002092A16D8B9
:1059F000059A44F0020402EB820203EB42021044D7
:105A0000761C0590EFE759F8042B0592002A03DA7B
:105A1000504244F40054059044F00204761C30785F
:105A20002E2816D116F8010F44F004042A280DD0B0
:105A30006FF02F023078A0F13003092B09D807EB63
:105A4000870302EB4303C718761CF3E759F8047B7E
:105A5000761C30786C280FD006DC4C2817D06828CC
:105A60000DD06A2814D104E0742810D07A280FD100
:105A70000DE044F400140AE044F4801401E044F41E
:105A800040147278824202D104F58014761C761C90
:105A9000307866280BD013DC582877D009DC002832
:105AA00075D04528F6D04628F4D047281AD19DE174
:105AB00018E0632835D0642879D0652812D195E1A3
:105AC000702873D008DC6728F1D069286FD06E2861
:105AD0000DD06F2806D1B5E073282CD0752875D06D
